:020000040800F2
:1000000000000320B97F00085F2E0008612E000861
:10001000632E0008652E0008672E0008000000000F
:10002000000000000000000000000000C177000890
:10003000692E000800000000517800087171000866
:10004000098000080980000809800008098000086C
:10005000098000080980000809800008098000085C
:10006000098000080980000809800008098000084C
:10007000098000080980000809800008098000083C
:10008000098000080980000809800008098000082C
:10009000098000080980000809800008098000081C
:1000A000098000080980000809800008098000080C
:1000B00009800008098000080980000809800008FC
:1000C00009800008098000080980000809800008EC
:1000D00009800008098000080980000809800008DC
:1000E00009800008098000080980000809800008CC
:1000F00009800008098000080980000809800008BC
:1001000009800008098000080980000809800008AB
:1001100009800008098000086D2E00080980000889
:10012000098000080980000809800008098000088B
:10013000098000080980000809800008098000087B
:10014000098000080980000809800008098000086B
:10015000098000080980000809800008098000085B
:10016000098000080980000809800008098000084B
:1001700009800008098000080980000800000000CC
:10018000098000080980000809800008098000082B
:10019000098000080980000809800008098000081B
:0C01A000792E000809800008852E000858
:1001B00010B5054C237833B9044B13B10448AFF3A1
:1001C00000800123237010BD6C010020000000009E
:1001D000AC0F020808B5034B1BB103490348AFF34A
:1001E000008008BD0000000070010020AC0F020874
:1001F00081F0004102E000BF83F0004330B54FEAD8
:1002000041044FEA430594EA050F08BF90EA020F44
:100210001FBF54EA000C55EA020C7FEA645C7FEAD7
:10022000655C00F0E2804FEA5454D4EB5555B8BFFA
:100230006D420CDD2C4480EA020281EA030382EA6B
:10024000000083EA010180EA020281EA0303362DFD
:1002500088BF30BD11F0004F4FEA01314FF4801CD0
:100260004CEA113102D0404261EB410113F0004FE2
:100270004FEA03334CEA133302D0524263EB430399
:1002800094EA050F00F0A780A4F10104D5F1200E37
:100290000DDB02FA0EFC22FA05F2801841F1000192
:1002A00003FA0EF2801843FA05F359410EE0A5F166
:1002B00020050EF1200E012A03FA0EFC28BF4CF097
:1002C000020C43FA05F3C01851EBE37101F000454D
:1002D00007D54FF0000EDCF1000C7EEB00006EEB5A
:1002E0000101B1F5801F1BD3B1F5001F0CD34908E4
:1002F0005FEA30004FEA3C0C04F101044FEA44523B
:1003000012F5800F80F09A80BCF1004F08BF5FEAC1
:10031000500C50F1000041EB045141EA050130BDA1
:100320005FEA4C0C404141EB010111F4801FA4F144
:100330000104E9D191F0000F04BF01460020B1FA99
:1003400081F308BF2033A3F10B03B3F120020CDAD1
:100350000C3208DD02F1140CC2F10C0201FA0CF0AF
:1003600021FA02F10CE002F11402D8BFC2F1200C14
:1003700001FA02F120FA0CFCDCBF41EA0C019040CA
:10038000E41AA2BF01EB0451294330BD6FEA040413
:100390001F3C1CDA0C340EDC04F11404C4F12002FE
:1003A00020FA04F001FA02F340EA030021FA04F310
:1003B00045EA030130BDC4F10C04C4F1200220FA67
:1003C00002F001FA04F340EA0300294630BD21FAA5
:1003D00004F0294630BD94F0000F83F4801306BF6B
:1003E00081F480110134013D4EE77FEA645C18BF5F
:1003F0007FEA655C29D094EA050F08BF90EA020FF6
:1004000005D054EA000C04BF1946104630BD91EAED
:10041000030F1EBF0021002030BD5FEA545C05D1F0
:100420004000494128BF41F0004130BD14F580042F
:100430003CBF01F5801130BD01F0004545F0FE41A3
:1004400041F470014FF0000030BD7FEA645C1ABFD8
:10045000194610467FEA655C1CBF0B46024650EA0F
:10046000013406BF52EA033591EA030F41F400213B
:1004700030BD00BF90F0000F04BF0021704730B5C1
:100480004FF4806404F132044FF000054FF0000196
:1004900050E700BF90F0000F04BF0021704730B557
:1004A0004FF4806404F1320410F0004548BF40422C
:1004B0004FF000013EE700BF42004FEAE2014FEA81
:1004C00031014FEA02701FBF12F07F4393F07F4F5C
:1004D00081F06051704732F07F4208BF704793F05F
:1004E0007F4F04BF41F40021704730B54FF4607472
:1004F00001F0004521F000411CE700BF50EA010275
:1005000008BF704730B54FF000050AE050EA01021D
:1005100008BF704730B511F0004502D5404261EB8D
:1005200041014FF4806404F132045FEA915C3FF4CE
:10053000D8AE4FF003025FEADC0C18BF03325FEA6B
:10054000DC0C18BF033202EBDC02C2F1200300FA1C
:1005500003FC20FA02F001FA03FE40EA0E0021FA41
:1005600002F11444BDE600BF70B54FF0FF0C4CF42F
:10057000E06C1CEA11541DBF1CEA135594EA0C0FE1
:1005800095EA0C0F00F0DEF82C4481EA030621EA1C
:100590004C5123EA4C5350EA013518BF52EA033557
:1005A00041F4801143F4801338D0A0FB02CE4FF009
:1005B0000005E1FB02E506F00042E0FB03E54FF039
:1005C0000006E1FB03569CF0000F18BF4EF0010E31
:1005D000A4F1FF04B6F5007F64F5407404D25FEA2D
:1005E0004E0E6D4146EB060642EAC62141EA5551E0
:1005F0004FEAC52040EA5E504FEACE2EB4F1FD0C22
:1006000088BFBCF5E06F1ED8BEF1004F08BF5FEA9F
:10061000500E50F1000041EB045170BD06F0004651
:1006200046EA010140EA020081EA0301B4EB5C04FE
:10063000C2BFD4EB0C0541EA045170BD41F48011F6
:100640004FF0000E013C00F3AB8014F1360FDEBF1B
:10065000002001F0004170BDC4F10004203C35DAF7
:100660000C341BDC04F11404C4F1200500FA05F37A
:1006700020FA04F001FA05F240EA020001F000421B
:1006800021F0004110EBD37021FA04F642EB060191
:100690005EEA430E08BF20EAD37070BDC4F10C04BB
:1006A000C4F1200500FA04F320FA05F001FA04F27F
:1006B00040EA020001F0004110EBD37041F100016B
:1006C0005EEA430E08BF20EAD37070BDC4F1200576
:1006D00000FA05F24EEA020E20FA04F301FA05F2DE
:1006E00043EA020321FA04F001F0004121FA04F286
:1006F00020EA020000EBD3705EEA430E08BF20EA56
:10070000D37070BD94F0000F0FD101F0004640008F
:1007100041EB010111F4801F08BF013CF7D041EA11
:10072000060195F0000F18BF704703F00046520015
:1007300043EB030313F4801F08BF013DF7D043EAE6
:100740000603704794EA0C0F0CEA135518BF95EA9C
:100750000C0F0CD050EA410618BF52EA4306D1D123
:1007600081EA030101F000414FF0000070BD50EA42
:10077000410606BF1046194652EA430619D094EACC
:100780000C0F02D150EA013613D195EA0C0F05D1B6
:1007900052EA03361CBF104619460AD181EA03010A
:1007A00001F0004141F0FE4141F470014FF00000C2
:1007B00070BD41F0FE4141F4780170BD70B54FF05D
:1007C000FF0C4CF4E06C1CEA11541DBF1CEA1355DD
:1007D00094EA0C0F95EA0C0F00F0A7F8A4EB0504BF
:1007E00081EA030E52EA03354FEA013100F08880B6
:1007F0004FEA03334FF0805545EA131343EA12637F
:100800004FEA022245EA111545EA10654FEA002633
:100810000EF000419D4208BF964244F1FD0404F5EC
:10082000407402D25B084FEA3202B61A65EB030548
:100830005B084FEA32024FF480104FF4002CB6EB05
:10084000020E75EB030E22BFB61A754640EA0C0085
:100850005B084FEA3202B6EB020E75EB030E22BFC5
:10086000B61A754640EA5C005B084FEA3202B6EB06
:10087000020E75EB030E22BFB61A754640EA9C00C5
:100880005B084FEA3202B6EB020E75EB030E22BF95
:10089000B61A754640EADC0055EA060E18D04FEA53
:1008A000051545EA16754FEA06164FEAC30343EAF3
:1008B00052734FEAC2025FEA1C1CC0D111F4801FC0
:1008C0000BD141EA00014FF000004FF0004CB6E7B9
:1008D00011F4801F04BF01430020B4F1FD0C88BF58
:1008E000BCF5E06F3FF6AFAEB5EB030C04BFB6EB63
:1008F000020C5FEA500C50F1000041EB045170BD56
:100900000EF0004E4EEA113114EB5C04C2BFD4EB82
:100910000C0541EA045170BD41F480114FF0000E06
:10092000013C90E645EA060E8DE60CEA135594EA82
:100930000C0F08BF95EA0C0F3FF43BAF94EA0C0F85
:100940000AD150EA01347FF434AF95EA0C0F7FF4FA
:1009500025AF104619462CE795EA0C0F06D152EA4E
:1009600003353FF4FDAE1046194622E750EA410632
:1009700018BF52EA43067FF4C5AE50EA41047FF443
:100980000DAF52EA43057FF4EBAE12E74FEA4102A6
:10099000B2F1E04324BFB3F5001CDCF1FE5C0DD9DD
:1009A00001F0004C4FEAC0024CEA5070B2F1004F27
:1009B00040EB830008BF20F00100704711F0804F2A
:1009C00021D113F13872BCBF01F00040704741F4EF
:1009D00080114FEA5252C2F11802C2F1200C10FAF3
:1009E0000CF320FA02F018BF40F001004FEAC123D7
:1009F0004FEAD32303FA0CFC40EA0C0023FA02F37B
:100A00004FEA4303CCE77FEA625307D150EA013350
:100A10001EBF4FF0FE4040F44000704701F0004020
:100A200040F0FE4040F40000704700BF7BB972B94F
:100A30000029BEBF00204FF0004106E008BF00289B
:100A40001CBF6FF000414FF0FF3000F0BDB9ADF1B9
:100A5000080C6DE904CE002909DB002B1ADB00F03D
:100A60004DF8DDF804E0DDE9022304B070474042B0
:100A700061EB4101002B1BDB00F040F8DDF804E0E6
:100A8000DDE9022304B0404261EB4101524263EBD5
:100A900043037047524263EB430300F02FF8DDF845
:100AA00004E0DDE9022304B0404261EB41017047FC
:100AB000524263EB430300F021F8DDF804E0DDE986
:100AC000022304B0524263EB4303704753B94AB95F
:100AD000002908BF00281CBF4FF0FF314FF0FF3046
:100AE00000F072B9ADF1080C6DE904CE00F006F823
:100AF000DDF804E0DDE9022304B070472DE9F0479A
:100B0000089E04468846002B4BD18A42154667D979
:100B1000B2FA82F24AB1C2F1200701FA02F320FAD6
:100B200007F7954047EA030894404FEA154E230C17
:100B3000B8FBFEF71FFA85FC0EFB178843EA084353
:100B400007FB0CF1994209D9EB1807F1FF3080F04F
:100B50001B81994240F21881023F2B445B1AA4B2D8
:100B6000B3FBFEF00EFB103344EA034400FB0CFC25
:100B7000A44509D92C1900F1FF3380F00781A44561
:100B800040F2048102382C4440EA0740A4EB0C04F4
:100B900000271EB1D4400023C6E900433946BDE812
:100BA000F0878B4209D9002E00F0EB800027C6E9C0
:100BB000000138463946BDE8F087B3FA83F7002FC5
:100BC00047D18B4202D3824200F2FA80841A61EB51
:100BD000030301209846002EE0D0C6E90048DDE777
:100BE00002B9FFDEB2FA82F2002A40F08F80491B80
:100BF0004FEA154E1FFA85F80127B1FBFEFC230CC6
:100C00000EFB1C1143EA014308FB0CF1994207D982
:100C1000EB180CF1FF3002D2994200F2CD808446ED
:100C2000591AA3B2B1FBFEF00EFB101443EA0444C0
:100C300008FB00F8A04507D92C1900F1FF3302D2B8
:100C4000A04500F2B6801846A4EB080440EA0C4028
:100C50009FE7C7F1200CBB4022FA0CFE4EEA030EC0
:100C600001FA07F420FA0CF521FA0CF34FEA1E48BA
:100C70002543B3FBF8F92C0C08FB19331FFA8EFA45
:100C800044EA034309FB0AF49C4202FA07F200FA21
:100C900007F10BD91EEB030309F1FF3080F08780C9
:100CA0009C4240F28480A9F1020973441B1BADB23F
:100CB000B3FBF8F008FB103345EA034400FB0AFAE3
:100CC000A24508D91EEB040400F1FF336BD2A24504
:100CD00069D90238744440EA0940A0FB0289A4EBB8
:100CE0000A044C45C2464B4654D351D0002E69D01D
:100CF000B1EB0A0564EB030404FA0CFCFD40FC4074
:100D00004CEA0505C6E90054002747E7C2F1200375
:100D100020FA03F7954001FA02F021FA03F34FEAB3
:100D2000154E3843010CB3FBFEF71FFA85F80EFB96
:100D3000173341EA034107FB08F38B4204FA02F43C
:100D400007D9691807F1FF3C2FD28B422DD9023FFA
:100D50002944CB1A81B2B3FBFEF00EFB103341EAFB
:100D6000034100FB08F38B4207D9691800F1FF3CEF
:100D700017D28B4215D902382944C91A40EA0747CD
:100D80003BE73746304609E70746E7E61846FBE605
:100D90004145ABD2B8EB020A69EB0E0201381346AB
:100DA000A4E76046E9E7184695E76746D1E781463C
:100DB0007CE702382C4447E7ACF1020C2B442FE7C8
:100DC000384608E73746E9E6704700BF00000000F4
:100DD00001F0FF01102A2BDB10F0070F08D010F8EC
:100DE000013B013A8B422DD010F0070F42B3F6D1F0
:100DF000F0B441EA012141EA014122F007047FF009
:100E000000070023F0E80256083C85EA010586EA5F
:100E1000010685FA47F5A3FA87F586FA47F6A5FA9B
:100E200087F68EB9EED1F0BC01F0FF0102F00702A7
:100E300032B110F8013B013A83EA010313B1F8D152
:100E40000020704701387047002D06BF3546033833
:100E5000073815F0010F07D1013015F4807F02BF6C
:100E6000013015F4C03F0130F0BC0138704700BFBD
:100E7000704704387047704710B5102104461EF0C3
:100E800025F8204610BDA0F10400F5E710B50022BA
:100E90008260044AC16002F10804203204604260AA
:100EA00010BD00BF041002087047704770477047BC
:100EB00010B5034B0360044600F08FF8204610BDC8
:100EC0003410020810B50446FFF7F2FF2046B421A3
:100ED0001DF0FCFF204610BD10B5044600F08EF852
:100EE000014B2360204610BD3410020800F076B894
:100EF0000022026070477047704700F598730868D9
:100F0000496803C37047704700F0B4B910B54FF497
:100F1000AE7104461DF0DAFF204610BD10B5044640
:100F2000D0F85801FFF7E7FF2046BDE810400CF06D
:100F30008BBE10B50446D0F8400158B10368DB6899
:100F4000984738B1D4F8400103689B68984700235C
:100F5000C4F8403110BD000010B5044600F052F94D
:100F6000014B2360204610BD6810020890F8252030
:100F700012B103685B691847704700207047818091
:100F80007047C18070470181704741817047704749
:100F90007047704770477047C38810B4D21A83886F
:100FA0005DF8044BC91A036812B25B6D09B21847A9
:100FB0004FF6FF7383814FF0FF3303621368C36101
:100FC0001060704790F825201AB190F8242002B1E3
:100FD000186070477047704770477047704710B58A
:100FE000082104461DF072FF204610BD10B5B42143
:100FF00004461DF06BFF204610BD00002DE9F043B4
:10100000044687B026460EF0D7FB00254F4B504ACA
:10101000E56346F8403B01232264FF2284F86530F3
:1010200084F86620A4F84450A4F84650A4F8485028
:10103000A4F84A50A4F84C50A4F84E50A4F85050CC
:10104000A4F85250C4E91555E565A4F86050A4F819
:10105000625084F86450A566A4F87050A4F87250E9
:10106000A4F87450A4F87650A4F87850A4F87A50F4
:10107000A4F87C50A4F87E50C4E92055C4F88850E8
:10108000A4F88C50A4F88E5084F89130314BE3666C
:101090004FF47F024FF6FF73DFF8C090C4F8A02032
:1010A000A4F89830A4F8AC30A4F8AE302946304605
:1010B00084F89050C4F89490C4F89C5084F8A450DC
:1010C00084F8A550A4F8A850A4F8AA50C4F8B050C9
:1010D000FFF755FF29463046FFF753FF3046F02112
:1010E000FFF751FF30464FF4A071FFF74EFF04F1B8
:1010F00004084FF07F43A3663146404606F0BEFF2A
:10110000154B236704F16C074FF0FF336E46C4F8AC
:101110009C3039463046A4F8A05009F093FE96E87A
:10112000070004F1A80383E8070004A93846CDF8B6
:101130001090ADF814500AF02DF94046394606F0EB
:101140009DFF204607B0BDE8F08300BFCC10020829
:1011500098210208082102084A009600BC100208E3
:1011600070477047704741607047704701230372B2
:1011700070477047704710B4C468416862100346F6
:10118000E40701EB02009B6848BF8A585DF8044BF6
:1011900048BFD358184743682BB183682BB9C06840
:1011A00000F001007047184670470120704710B5E5
:1011B0000C2104461DF08AFE204610BD10B54FF4E8
:1011C000AE7104461DF082FE204610BD10B5102100
:1011D00004461DF07BFE204610BD10B50CF0B2FC9D
:1011E0000368BDE81040DB6B18470000044B1B6828
:1011F00093F858200AB1D86C00B99868704700BFBE
:101200006C210120F8B5044617460E460CF05CFD33
:10121000144BC4F854711C60134B2360134BC4F877
:101220004431134BC4F8586100251868C4F83C5188
:10123000C4F84051C4F84851C4F84C51C4F8505156
:10124000036801219B689847284600F0CDFAFFF714
:10125000CDFF15F05AFDFFF7C9FF15F0D1FD20466F
:10126000F8BD00BFC02101201811020800110208BA
:101270006C210120064BC0F84C310023C0F85031DE
:1012800000F5A273C0F84801C0F84031704700BFB4
:10129000D51300082DE9F04707469068DDF820A037
:1012A000994603681B6A884615469847B32805D8AF
:1012B000424B434AA32143481EF094FE68680368EA
:1012C0001B6A98470F2803D83F4B3D4AA421F2E7F9
:1012D000E86803681B6A98470B2803D83B4B384AD9
:1012E000A521E8E70CF02EFC04300CF050FCD9F8F6
:1012F000000010B10368DB689847D9F8000010B10E
:1013000003681B689847386810B103685B699847A1
:10131000D8F8000010B103685B689847386810B1CE
:1013200003681B689847D8F8000010B103689B68F1
:101330009847E868036800215B6A9847044620B133
:10134000002343600372224B0360A86803680021F6
:101350005B6A9847064608B1FFF7BEFD68680368F8
:1013600000215B6A9847054610B13146FFF78EFDB4
:10137000C9F80040C8F800503E60E5B12B1DCAF81E
:101380000030C5F808A03368F5633046DB6898473D
:101390002B6828461B689847214630460EF0B8FB5C
:1013A000236820461B699847236820465B69984755
:1013B0002846BDE8F0872B46E1E700BF8811020808
:1013C0009D1302081612020857120208FA120208A8
:1013D0006C11020807B5D0F858310093D0F85421A9
:1013E000044B00F59E710448FFF754FF03B05DF80D
:1013F00004FB00BFB4210120B021012013B500225D
:1014000049B102AB019203F8052D0268946801AA64
:10141000A04702B010BD0846FBE7C0897047008AAC
:101420007047C088704780887047807A00F07F00DE
:101430007047807AC0097047002070479FED010A0D
:10144000704700BF00000000406A7047806A704724
:1014500070478B88C0690A68DB0A50F82300104483
:10146000704710B5C2B1137BB3B1547BD27A24025A
:1014700004F4E0641443026A98B202EB8402138815
:101480008B4202D192F9020010BD05D8013880B21A
:1014900004320028F3D1F7E70020F5E710B52C213E
:1014A00004461DF013FD204610BD000030B58BB082
:1014B0000446BDF860500895BDF85C5007959DF84E
:1014C000505006959DF84C5005959DF84850049550
:1014D0009DF8445003959DF8405002959DF83C506E
:1014E0000195BDF8385000950DF06CFF064B236058
:1014F000159BE361169B2362199B63621A9BA3628F
:1015000020460BB030BD00BFAC14020830B5174DFB
:101510002C78BFF35B8F14F001048FB022D12846E2
:101520001DF0ACFCF0B13F230993114B0893114B14
:1015300011490A940122CDE906430423CDE903327F
:101540000A230093CDE90B440594CDE901440B48EF
:10155000FFF7ACFF28461DF09DFC094A09490748E2
:101560001DF0AFFC05480FB030BD00BF8801002062
:10157000E02E0208DC2E0208302E02088C0100202A
:10158000000000205114000810B5002404600C6015
:1015900014601C6010BD000030B5174D2C78BFF3EF
:1015A0005B8F14F001048FB022D128461DF066FC39
:1015B000F0B13F230993114B0893114B11490A9441
:1015C0000122CDE906430423CDE903322823009309
:1015D000CDE90B440594CDE901440B48FFF766FFC4
:1015E00028461DF057FC094A094907481DF069FCC7
:1015F00005480FB030BD00BFB8010020D82E02084A
:10160000F42E0208582E0208BC0100200000002021
:101610005114000830B5174D2C78BFF35B8F14F0D0
:1016200001048FB023D128461DF028FCF8B13F23D8
:101630000993114B0893114B07930123CDE90543FF
:1016400004930423CDE90243142308220C49009398
:10165000CDE90B440A9401940A48FFF727FF284676
:101660001DF018FC084A094906481DF02AFC0548E7
:101670000FB030BDE8010020E42E0208F82E020869
:10168000682E0208EC010020000000205114000820
:10169000704710B5042104461DF018FC204610BD0B
:1016A000012908B508D003D3022909D0002002E09F
:1016B00000F012F8006808BD00F00EF84068FAE784
:1016C00000F00AF88068F6E7004870472015020825
:1016D0000120704701207047004870471802002021
:1016E00010B5FFF797FF044C2060FFF755FF6060CF
:1016F000FFF70CFFA06010BD18020020002070470B
:10170000002070470EB403B503AB002153F8042B3F
:1017100001930DF063F902B05DF804EB03B070477C
:101720000CB407B504AB53F8042B01930DF056F934
:1017300003B05DF804EB02B07047000010B5436CD5
:10174000044673B3038F2BB9184B194AC5211948A6
:101750001EF048FCC38E00EB43035B8C0BB30EF012
:1017600006FF238F012B03D8134B144ACB21EEE73E
:10177000E28E531C9BB2092B194688BFA3F10A01C4
:1017800004EB410140F63F10498C814209D10A2BFC
:1017900004EB420228BF002304EB4303508C58841F
:1017A00051842046BDE810400EF0E4BD3415020817
:1017B000611602083D150208811502088F150208FE
:1017C0000EF09FBD10B586B002AC84E806001A4644
:1017D0000AAB05930193099B00932146089B0BF0EC
:1017E0004FFD06B010BD000038B5D8B9114B1248F6
:1017F0001B681249BBB11A689C681A4402605A6897
:101800001A440A601C446CB10D4B00221A80FFF789
:1018100063FF0546FFF75EFF0A4B1C600A4B1D6025
:101820000A4B188038BD0A4B03600A4B0B600A4B09
:101830001C68E8E724020020280200202C02002077
:1018400030020020C4210120CC210120C821012028
:10185000082F0208FC2E0208042F0208044B1B6804
:1018600053F82100034B1B6803EB4000704700BF97
:101870002C02002028020020012380F8781080F834
:1018800079307047002070474164034B003118BF26
:1018900001211970704700BF6921012000207047A5
:1018A000836B0BB10846184770474FF6FF707047BF
:1018B000406803689B69184770477047002070476D
:1018C000B1F90430838001207047704780F82610FA
:1018D000704790F82600704710B50022B1F9084013
:1018E000B1F90A10028042808480C18010BD0022BC
:1018F000028042808280C28070470177704780ED0D
:10190000080A704780F82410704780F82510704747
:1019100001207047983070478C3070478430704792
:10192000034B902283F85A2383F85823704700BF53
:1019300000E100E0094A0A49D3680A48C3F30A03F0
:10194000013B9BB20B801169C1F30A01013901808F
:101950001364536B43F00103536370470068014005
:101960003A02002038020020014B986A704700BFFD
:1019700084680140024B0122996243F8602C704751
:10198000846801407047704710B52C2104461DF053
:101990009DFA204610BD10B5BC2104461DF096FAF4
:1019A000204610BD10B531B90A4B0B4A0B4840F226
:1019B000D2211EF017FBC0E90F120032084918BFF0
:1019C00001220A7002681946D2F88C20BDE8104046
:1019D000104700BF0D190208001A02084519020835
:1019E0006821012008B5094B1B888B4203D8084B9E
:1019F0001B88934205D9074B074A08489E211EF0D1
:101A0000F1FA074B1980074B1A8008BD5E210120AF
:101A100060210120AA180208BD1902084519020810
:101A2000642101206621012070B5044606F011FEF4
:101A300023685D6E0CF086F801462046A8472368AF
:101A4000054AD3F888502046AC460023A2F516314B
:101A5000BDE87040604700BF005802D006F0E0BD0E
:101A600006F0EABD06F0A6BD06F007BF10B50446B5
:101A700007F03CFB23682046D3F8AC30BDE81040AB
:101A8000184790F87A301BB1406803681B68184704
:101A90001846704710B590F8784090F834100C4B09
:101AA0008C421A7809D03AB90A4A0B491488088836
:101AB00010800C8001221A7010BD002AFCD0054A4B
:101AC00005491488088810800C800022F3E700BFC5
:101AD000622101205E21012060210120034B4FF093
:101AE00080629A604FF080729A60704700E100E077
:101AF000084B4FF08062C3F88820BFF34F8FBFF3CD
:101B00006F8F4FF08072C3F88820BFF34F8FBFF301
:101B10006F8F704700E100E070B500238380114DA6
:101B2000114B03602A6892F85810064609B1D06C30
:101B300000B990680368DB6A98472B68B0FA80F4B4
:101B4000D86C640928B10368DB6A9847002808BF8D
:101B500001242CB9054B064A06482C211EF042FAF6
:101B6000304670BD6C21012014170208F0170208DE
:101B7000841902084E18020870B5294E3578BFF353
:101B80005B8F15F0010548D130461DF077F900282C
:101B900043D0244C244B256104F13400C4E90035C2
:101BA000C4E90255E58425856585A5850DF04DFBC5
:101BB00004F1580008F0EEFF1C4BA36520461C4BB7
:101BC00040F8843BFFF7A8FF1A4BC4F88430243355
:101BD000C4F88C306423A4F8A0300023C4F8AC30DF
:101BE000C4F8B030C4F8B430C4F8B8303046124B42
:101BF000C4F89050C4F89C50C4F8A45084F8A8507D
:101C000084F8A95084F8AA50C4F898301DF042F91D
:101C10000A4A0B4920461DF054F9024870BD00BF26
:101C2000340200203C02002044200208341702083D
:101C3000AC170208F81F0208D81F02080000002095
:101C40008519000810B5144C236823B3134B144AAC
:101C50001B6C11888B4213D1124B198803F06AFC5C
:101C6000226892F86A30013382F86A3000F036FA5E
:101C7000206807F03BFA0020BDE8104000F05EBC91
:101C800003F058FC206803681B6A98470020BDE8F1
:101C9000104000F07DBC10BD6C21012000680140A7
:101CA0003A0200203802002003685B6C18470120CC
:101CB000704703689B6A184782B0002301930D4B5D
:101CC0001A6B42F400021A631A6B02F400020192CA
:101CD000019A1A6942F400021A611A6922F4000298
:101CE0001A61054B054A1A61054B4FF080629A60F4
:101CF00002B0704700380240782C01200D1D00080A
:101D000000E100E040F2EF3070470000024B1B683A
:101D1000586803685B6918476C21012008B50B28D7
:101D20000BD8DFE800F01206100A0A0A0A080808B1
:101D30000808012008BD0520FCE7054B054A0648B8
:101D400065211EF04FF90020F4E70220F2E700BF02
:101D5000681A02083A1B0208831A020808B50A2802
:101D600009D8DFE800F010060E0808080806060685
:101D70000600012008BD054B054A064886211EF0D5
:101D800031F90020F6E70220F4E700BF681A0208E4
:101D9000841B0208831A0208F8B50C46487FFFF737
:101DA000BDFFA77F05463846FFF7B8FF0646384611
:101DB000FFF7D4FFA38A628BD21A494B1A64A18A17
:101DC000628B521A9A61A18A228B521A1A61586345
:101DD000A18AE28A42EA01425A642269DA636268AD
:101DE000DA602268402A70D010D8042A3BD0202A1A
:101DF0006BD0237F45EA0365394B45F40035DD613F
:101E0000617FA27F914267D0364A4BE0B2F5807F76
:101E10001BD0B2F5007F23D0802AEAD1A068021D32
:101E2000DA62227F45EA026545F40035DD615E62D3
:101E300022695A610278EAB1012A35D02A4B2B4A2D
:101E40002B484FF488711EF0CDF8217F294A42EAD1
:101E50000162DA61E2681A625E6222695A6120E018
:101E6000217F254AF3E7227F45EA026545F40035E4
:101E7000DD61F1E7D9694288501E21F47F4222F0EA
:101E8000100242EA0022DA610121154BDA6942F0C0
:101E90002002DA61DA699206FCD410229A600029E5
:101EA000B2D0164A1A60F8BDDA694088217F22F460
:101EB0007F4222F01002013842F01002FF3942EA5C
:101EC000002218BF0121DA61DFE7237F45EA0365BD
:101ED00045F40035024BCBE740F20122E2E700BFB8
:101EE00000B00240010201004E1A0208FC1A02086A
:101EF000831A02080A00020009000200010202001F
:101F000010B5887F0C46FFF729FF1C4B5863A18A48
:101F1000E28A42EA01425A642269DA63628BA18A48
:101F2000521A1A642268082A16D1A18A628B521AA0
:101F30009A61A18A628B521A1A615862217F104AF3
:101F400042EA0162DA61E2681A6222695A61226930
:101F5000DA600C4A1A6010BD0022D8611A61E1688B
:101F60000A0A480902F4784200F4FC600243C1F313
:101F7000C4010A439A63044AECE700BF00B0024080
:101F8000090001000102020001020300054B036089
:101F9000054B4FF08062C3F88820BFF34F8FBFF32B
:101FA0006F8F7047B41A020800E100E010B50446D4
:101FB000FFF7ECFF20464FF45A611CF087FF2046E4
:101FC00010BD000070B505462C460A4B0C300026AB
:101FD00068602E726E7244F8203B6022214607F042
:101FE000DDF905F55A63E6602434A342FBD12846A7
:101FF00070BD00BFB41A0208034B1A68D207FCD4A4
:1020000023229A60704700BF00B0024030B50F4CE9
:102010002568ED07FCD423250904A56041F00101E2
:102020000225FF2B65636164E0630AD0084965629D
:1020300041EA0363E361074B22626061E060236071
:1020400030BDE561039BA363034BF8E700B002409A
:10205000090001000100020001000300012108B590
:102060000022084605F013F90A4B186028B90A4BFC
:102070000A4A28210A481DF0B5FF00220421012048
:1020800005F0A6F9074B186018B9074B034A2C2135
:10209000F0E708BDFC020020CF1B0208831C0208E9
:1020A000181C0208F8020020411C0208024B4FF0E5
:1020B000FF31186805F036B9FC020020014B1868A2
:1020C00005F05CB9FC020020024B0021186805F005
:1020D00029B900BFFC020020FFF7F0BF0348044904
:1020E000006800231A4605F0AFB900BFF8020020CF
:1020F0000400002013B5084C00231A4601A92068EB
:1021000005F0D4F94FF0FF33002201A9206805F053
:10211000CDF902B010BD00BFF80200207047704733
:1021200070477047012070470C2070470C2303FB59
:102130000100083070470C2303FB01000830704792
:1021400001207047B4207047B42303FB010008301E
:102150007047B42303FB010008307047012070472B
:102160001020704700EB01100830704700EB0110A1
:10217000083070470846FFF77DB8000010B5034BE4
:102180000360044605F064FF204610BD241D0208CC
:1021900010B50446FFF7F2FF204614211CF096FE0E
:1021A000204610BD10B5034B0360044605F050FFF8
:1021B000204610BDF01C020810B50446FFF7F2FFE0
:1021C0002046BC211CF082FE204610BD10B5034BFA
:1021D0000360044605F03CFF204610BDBC1C02080D
:1021E00010B50446FFF7F2FF204618211CF06EFEE2
:1021F000204610BD10B5084B044640F8E83BFFF7F9
:10220000BDFF04F12C00FFF7CDFF04F11400FFF730
:10221000DDFF204610BD00BF581D020810B5044662
:10222000FFF7E8FF20464FF417711CF04FFE2046E1
:1022300010BD00002DE9F341FFF746FA0546FFF710
:1022400047FA0024014623462846224600940EF011
:1022500061FC284B284A1A602046FFF7C5FA274B35
:10226000274A284D9A6028480EF0BCFB2B78BFF314
:102270005B8FDB0738D428461CF000FE002833D0E3
:10228000224C234B236004F5807604F1140004F102
:102290002C0804F1E8076060C4F80880E760266154
:1022A00005F0D8FE1B4B6361404605F0D3FE1A4B88
:1022B000E362384605F0CEFE184BC4F8E83004F16E
:1022C000FC00FEF715FE224604F1FC013046FEF745
:1022D00043FE3046FEF7CEFF28461CF0DBFD104AD9
:1022E000104920461CF0EDFD0F4802B0BDE8F0415A
:1022F00000F0ECB8D02101209C130020A013002096
:1023000060050020000300200800002004030020D6
:10231000581D0208BC1C0208F01C0208241D0208FB
:1023200000000020F5210008201300207047000065
:10233000014800F0D9B800BF2013002010B50421D7
:1023400004461CF0C3FD204610BD10B5882104468C
:102350001CF0BCFD204610BD10B51C2104461CF02D
:10236000B5FD204610BD10B57C2104461CF0AEFD25
:10237000204610BD2DE9F0413E4C3F4D3F4F404BB4
:1023800040492B60224628461CF09BFD3E4EDFF85C
:1023900038813846FFF716FE22463C4938461CF085
:1023A00090FD304612F080FE2246394930461CF03E
:1023B00088FD40460CF0EAFC2246364940461CF0B7
:1023C00080FD2246344935481CF07BFD34483549B0
:1023D00081663549C56000230122344D0385C0E97B
:1023E0000176C0E90433C0E90633C0E9083380F858
:1023F0002A30C3620386C0E90E33C0E9103380F887
:10240000483080F8492080F84A3080F84B30C0E9E5
:102410001333436580F85830C0E91733436680F8BA
:102420006C3080F86D3080F86E3080F86F30086066
:10243000F02129801E4D80F8703029801D4D4367A2
:102440004FF4A07129801C4D80F8783029801B49F9
:1024500080F879300B701A4B80F87A2080F87B2056
:1024600080F83420036022461649BDE8F0411CF094
:1024700028BD00BF000000207C0500208005002052
:10248000441E02081D210008A01300208D1F000813
:102490001F210008212100089116000808000020D3
:1024A00020130020010000016C2101205E21012089
:1024B0006421012060210120662101206221012088
:1024C0006C1D0208232100086005002010B5044699
:1024D000FFF7AAFA23680349D3F88C302046BDE8F9
:1024E0001040184700B004D008B503680446D3F87C
:1024F00080309847236820469B6F9847FFF7FAFD86
:10250000236820461B6F9847292000F04DFCFFF7F9
:10251000F1FD236820461B6F9847F8E7FFF724BAC0
:10252000FFF728BAFFF79EBAFFF7FAB9FFF7D6BA56
:10253000FFF7DEBAFFF7FEB906F036B8032821D858
:10254000DFE800F0020B12190F4B1A68B2FA82F2A0
:10255000520904210D4802F0BDB90B4B5A68B2FA7A
:1025600082F252090821F5E7074B9A68B2FA82F223
:1025700052091021EEE7044BDA68B2FA82F25209EE
:102580002021E7E7704700BF281400200010024018
:10259000032821D8DFE800F0020B12190F4B1A684C
:1025A000003218BF012204210D4802F093B90B4BF1
:1025B0005A68003218BF01220821F5E7074B9A68D4
:1025C000003218BF01221021EEE7044BDA68003216
:1025D00018BF01222021E7E7704700BF2814002020
:1025E0000010024003280DD8DFE800F00206080AB8
:1025F0000421054802F073B90821FAE71021F8E731
:102600002021F6E7704700BF0010024008B50328FC
:1026100011D8DFE800F0020A0C0E0421074802F08E
:1026200053F9431E5842584108BD0821F6E71021CE
:10263000F4E72021F2E70020F3E700BF001002409A
:1026400070B5084D00240126E0B2FFF7DFFF28B186
:1026500055F82430012B18BF45F824600134052CAF
:10266000F2D170BD2814002038B50C4B0C4C1880EA
:102670000C4B822019806368984740F611039842FA
:102680000AD1094D23682C60822098472B6882204C
:10269000DB689847002038BD0120FCE73814002093
:1026A000240000203A1400203C1400204FF4A071B4
:1026B000F020FFF7D9BF0000F7B52C4D2B6804467A
:1026C0001B698220984780B2208000284BD02B685D
:1026D0000DF106025B6901A982209847BDF806301A
:1026E000A3F5B4739BB20B22B3FBF2F333B1204AD0
:1026F00012889A423CBF02F1FF339BB2BDF804201E
:1027000040F6B8318A4295BFC2F57162C2F56D627A
:102710000E320832ADF80420BDF804100F22B1FBD0
:10272000F2F131B1134A12888A423CBF02F1FF3103
:1027300089B2114E114D30682F6882B2814288BF34
:102740008A1AB8B298BF521ABB428CBF181AC01A64
:1027500092B280B20244052AC4BF31602B60336854
:1027600063802B68A38003B0F0BD00BF3C14002041
:102770003A14002038140020401400204414002093
:1027800037B568460D461446FFF796FFBDF80000C2
:1027900030B1BDF802302B60BDF804302360012059
:1027A00003B030BD054BD3F8882042F47002C3F863
:1027B00088204FF000629A60704700BF00ED00E093
:1027C00070B588B000230293204B1A6C42F01002BF
:1027D0001A641B6C03F010030293064601A903A8B8
:1027E000029B01F06BF8069B4BBB01F057F8184CAD
:1027F000184B236040F2E733E360174BB0FBF3F074
:1028000001380023606020462361A360A36101F0CA
:10281000B7F9054680B9204601F070F8054658B969
:10282000362001F0B1FE0F2E0DD82A463146362053
:1028300001F076FE094B1E60284608B070BD01F01D
:102840002DF84000D3E70125F6E700BF003802402D
:10285000CC2A01200010004040420F001C00002044
:1028600007B5064B02A91B6821F8020D0122044896
:1028700002F067F903B05DF804FB00BF140000200C
:102880006C2B012008B5642004F0F5FCFBE7000088
:1028900030B595B03022002108A81DF01EFC14228E
:1028A000002103A81DF019FC00241D4B01941A6C93
:1028B00042F080521A641B6C03F080530193019B19
:1028C000184B02941A6842F440421A601B6803F4E1
:1028D000404302930122029B4FF48033CDE9082349
:1028E00002254FF48003CDE90E5308214FF4A8735D
:1028F000CDE9101308A804231393129500F056FD98
:102900000F23CDE903354FF4A0504FF48053CDE9A8
:102910000603052103A8059400F022FF15B030BD81
:10292000003802400070004080B59AB002F022FEEC
:10293000FFF7AEFF142200210DA800241DF0CDFBEF
:10294000C34B00941A6BC348C34D42F010021A6384
:102950001A6B02F010020092009A01941A6B42F076
:1029600020021A631A6B02F020020192019A02946B
:102970001A6B42F080021A631A6B02F08002029214
:10298000029A03941A6B42F004021A631A6B02F063
:1029900004020392039A04941A6B42F001021A6330
:1029A0001A6B02F001020492049A05941A6B42F029
:1029B00002021A631A6B02F002020592059A06944B
:1029C0001A6B42F040021A631A6B02F04002069240
:1029D000069A07941A6B42F008021A631B6B03F005
:1029E0000803079322463C21079B01F073FF224610
:1029F00004219A4801F06EFF22464FF44051984856
:102A000001F068FF01263C234FF003080DA991480F
:102A1000CDF8408002274FF00409CDE90D360F9420
:102A200001F064FE0DA98D480F94CDE90D96109725
:102A300001F05CFE0DA98B480F97CDE90D6401F004
:102A400055FE0DA94FF440538548CDE90D36CDE92B
:102A50000F4701F04BFE8448844B036002F0F8FE00
:102A6000834A844B2C62C5E9002328464FF48043F7
:102A7000C5E90434C5E90244C5E9064401F0A0FAF9
:102A80001021284601F0F4FC2146284601F012FDF1
:102A900079487A4984624FF48273C0E900134FF495
:102AA00000751823C0E906530A23754DC362C0E9B7
:102AB0000244C0E90444C0E9084401F0E3FF714B5B
:102AC0000D974FF0100CC5E900364023C5E904C34B
:102AD0004FF4C073C5E906344FF40063C5E9083408
:102AE0004FF40053AB620DA907232846CDE90E39F8
:102AF000CDE910384FF0080AC5E90249CDE912774F
:102B000000F0FEFB4FF6FF7209A9284608940996CB
:102B1000CDE90AA60C9400F013FC304602F056FDF5
:102B20004FF6FF7209A92846CDE9097ACDE90B6471
:102B300000F006FC4FF6FF7209A92846CDE9098A84
:102B4000CDE90B9400F0FCFB4FF40C730893089B49
:102B50000C934FF6FF7209A92846CDE9099A0B9606
:102B600000F0EEFB40F26A51284600F007FC3422E8
:102B700021460DEB02001DF0B0FA434D434B2C6192
:102B8000C5E900340923C5E905361D2340F20D1EB1
:102B9000C5E9073840F24313C5E909E340F21718C5
:102BA00040F24713C5E90B83C5E90244AC8685F8BA
:102BB0003640284602F0B8FBFF21F022CDE912147E
:102BC0004FF4806905214FF4A073CDE90E24CDE9BF
:102BD0001491CDE916420DA922462846CDE91037B9
:102BE0002B4D18930D94ADF864408DF8664002F0BB
:102BF00078FC284B2B601B6898472B68264DDB68B8
:102C00009847264BC5E90A47C5E90C442846C5E95B
:102C10000034C5E9027402F0D8F93146284602F0C2
:102C200095FA02F026FE02F023FE04F0AFFA1C4AE9
:102C30001C48214604F0D6FA1B4B1C4A186021465A
:102C40001B4804F0CFFA1B4B186004F0B1FA33E0D4
:102C50000038024000100240182B012000080240FA
:102C6000000C024000000240C42B01200030024052
:102C7000005C0040A08601006C2B01200050014048
:102C8000B82C0120400100A0CC2B0120006801409D
:102C9000481400204C000020782C012000B0024095
:102CA000901E020885280008142B01206C1E0208C3
:102CB00081580008742C0120FEE700BF7047704760
:102CC00010B586B006AC074B04F8012D1B680293C3
:102CD00001230A46CDE900430146034801F020FAEA
:102CE00006B010BD10000020182B01207FB506AAE9
:102CF000002302F8013D084B1B6802930123CDE934
:102D000000230A460146054801F09EFA9DF8170087
:102D100007B05DF804FB00BF10000020182B012055
:102D20001FB5084C24680092CDE901340A460123FE
:102D30000146054801F088FA003018BF012004B0B0
:102D400010BD00BF10000020182B012002F03EBC77
:102D500010B5064C00222046042101F0BBFD2046A0
:102D600001220421BDE8104001F0B4BD000802407A
:102D700038B50B4C054601224FF40051094801F0CB
:102D8000A9FD00220421204601F0A4FD2846FFF7FA
:102D900067FD204601220421BDE8384001F09ABDBC
:102DA00000080240000C024038B50B4C05460022DA
:102DB0004FF40051094801F08DFD00220421204606
:102DC00001F088FD2846FFF74BFD20460122042133
:102DD000BDE8384001F07EBD00080240000C024012
:102DE000F7B5144C144D07460E4620460022042128
:102DF00001F070FD00224FF40051284601F06AFDF9
:102E00003846FFF72DFD0D4B0D481B68324601A9D2
:102E100002F039F8284601224FF40051019E01F0DA
:102E200059FD20460122042101F054FD304603B033
:102E3000F0BD00BF00080240000C0240140000205A
:102E40006C2B012002F0C2BB0268034B9A4201D1F5
:102E500002F0AABB704700BF0010004070477047E7
:102E6000FEE7FEE7FEE7FEE770470000014800F0DE
:102E700083BD00BFCC2A0120014802F0D1BA00BFB7
:102E8000CC2B0120014802F0D0B800BF782C0120E3
:102E900082B00E4B00220092596C41F4804159647B
:102EA000596C01F48041009100990192196C41F034
:102EB000805119641B6C03F080530193019B0F2117
:102EC0006FF0010002B001F02BBB00BF00380240E0
:102ED0000268094B9A4282B00BD100230193074B41
:102EE0001A6B42F480521A631B6B03F480530193F4
:102EF000019B02B0704700BF003002400038024022
:102F000007B50F4B02689A4216D10022A3F5F04391
:102F10000192196B41F4000119631B6B03F4000368
:102F2000019305215A20019B01F0FAFA5A2003B0BF
:102F30005DF804EB01F028BB03B05DF804FB00BFB3
:102F400000B002402DE9F043044689B0142200216C
:102F500003A81DF0C2F82268244B9A4243D1244CA6
:102F6000244800250095236B43F004032363236B5F
:102F700003F004030093009B0195236B43F00103CE
:102F80002363236B03F001030193019B4FF01209AC
:102F90004FF400734FF001080327042603A9CDE97D
:102FA0000339CDE90587079601F0A0FB4FF4807344
:102FB00003A911480796CDE90339CDE9058701F04A
:102FC00095FB0295236C43F400032364236C03F404
:102FD00000030293029B236A43F400032362236AE3
:102FE00023F40003236209B0BDE8F083005C0040D5
:102FF000003802400008024000000240F0B599B0DD
:1030000004461422002107A81DF067F830220DEBBA
:10301000020000211DF061F822685E4B9A4240F0E8
:10302000B78008230C93C0231093042312930CA899
:103030004FF40033159302F0DDFA08B1FFF70EFFED
:10304000554B5648002400945A6C42F080625A64F2
:103050005A6C02F080620092009A01941A6B42F05E
:1030600020021A631A6B02F020020192019A029464
:103070001A6B42F001021A631A6B02F0010202920B
:10308000029A03941A6B42F002021A631A6B02F05E
:1030900002020392039A04941A6B42F040021A63EC
:1030A0001A6B02F040020492049A05941A6B42F0E3
:1030B00004021A631A6B02F004020592059A069440
:1030C0001A6B42F008021A631B6B03F008030693A5
:1030D00002250E26069B0B964FF4806307A9CDE9C7
:1030E0000735CDE9094501F001FB41F6580307A971
:1030F0002B480B96CDE907350927CDE9094501F0A5
:10310000F5FA032307A927480B97CDE90735CDE941
:10311000094501F0EBFA4FF4706307A921480B96BB
:10312000CDE90735CDE9094501F0E0FA4FF40C632C
:1031300007A91D480B96CDE90735CDE9094501F0F2
:10314000D5FAC02307A919480B96CDE90735CDE973
:10315000094501F0CBFA082307A915480B96CDE9DC
:103160000735CDE9094501F0C1FA4FF4A05307A98D
:103170000D480B97CDE90735CDE9094501F0B6FAC1
:1031800058202246052101F0CBF9582001F0FCF926
:1031900019B0F0BD00680140003802400014024040
:1031A00000000240000402400018024000080240F3
:1031B000000C024010B5044688B01422002103A878
:1031C0001CF08BFF2268144B9A4223D103F568430D
:1031D000002101915A6C114842F480125A645A6CD1
:1031E00002F480120192019A02911A6B42F02002BD
:1031F0001A631B6B03F020030293029B4FF460726F
:1032000002230321CDE903230523CDE9061303A9F6
:1032100001F06CFA08B010BD0050014000140240EB
:103220002DE9F04186B01422002101A81CF055FFC1
:103230002B4B1C68002C4FD14FF00108C3F80080C5
:10324000284B00949A6B284842EA08029A639B6BC9
:1032500003EA08030093022703260C25009B01A91B
:103260004FF63F03CDE90137CDE9046501F03EFAA1
:1032700001A91E480595CDE90187CDE9034601F076
:1032800035FA48F2331301A919480595CDE90137FC
:10329000CDE9034601F02AFA4FF6837301A91548D8
:1032A0000595CDE90137CDE9034601F01FFA4CF24F
:1032B000037301A910480595CDE90137CDE903460F
:1032C00001F014FA602301A90C480595CDE90137F6
:1032D000CDE9034601F00AFA06B0BDE8F08100BF6F
:1032E0004C14002000380240001402400008024044
:1032F0000018024000100240000C0240000402408E
:1033000038B50D460446C8B190F82C3003F0FF02E2
:103310001BB980F82D20FFF783FF022384F82C309F
:10332000211D206801F03EF962682068294601F0FD
:103330006DF9012384F82C30002038BD0120FCE712
:1033400070B5054690F82C00C0B202280E4612D087
:1033500000F0FB04012C0FD1022385F82C302868E3
:1033600001F096F93368022B06BF052385F82C304F
:1033700085F82C40002070BD0120FCE738B50446DC
:1033800090F82C00C0B202280DD094F82C50EDB269
:10339000012D09D1022384F82C30206801F09CF91A
:1033A00084F82C50002038BD0120FCE72DE9F341C2
:1033B000044608B9012041E00368DD0710D4236802
:1033C00098075AD423681A0700F19C8023685B078A
:1033D00000F1BA80A069002840F01C8100202DE097
:1033E000A44B9A6802F00C02042A07D09A6802F0F3
:1033F0000C02082A0AD15B68590207D59D4B1B684D
:103400009A03DCD56368002BD9D1D3E76268994B66
:10341000B2F5803F15D11A6842F480321A606368B1
:10342000F3B102F0CDF8934D06462B689B03C6D44A
:1034300002F0C6F8801B6428F7D9032002B0BDE86B
:10344000F081B2F5A02F1A6803D142F480221A60ED
:10345000E1E722F480321A601A6822F48022DDE764
:1034600002F0AEF8834D06462B689F03A7D502F005
:10347000A7F8801B6428F7D9DFE77E4B9A6812F023
:103480000C0F07D09A6802F00C02082A11D15B6871
:103490005E020ED4774B1A68950702D5E268012ABE
:1034A00088D11A68216922F0F80242EAC1021A6042
:1034B00088E7E268704BB2B101221A6002F080F82E
:1034C0006C4D06462B68980707D52B68226923F0B8
:1034D000F80343EAC2032B6074E702F071F8801B23
:1034E0000228EFD9A9E71A6002F06AF8614D064692
:1034F0002B6899077FF566AF02F062F8801B0228FF
:10350000F6D99AE762695D4B7AB101221A6002F03E
:1035100057F8584D06466B6F9F073FF557AF02F0BF
:103520004FF8801B0228F6D987E71A6002F048F8A6
:10353000504D06466B6F98077FF548AF02F040F894
:10354000801B0228F6D978E74A4B1A6C12F0805299
:103550002BD101921A6C42F080521A641B6C03F05A
:1035600080530193019B0126454D2B68D9051ED53B
:10357000A268404B012A2AD11A6F42F001021A6751
:10358000A368002B37D002F01BF83A4D074641F2F2
:1035900088382B6F9B0728D5002E3FF41BAF354A88
:1035A000136C23F08053136414E70026DCE72B68C8
:1035B00043F480732B6002F003F807462B68DA05AA
:1035C000D6D401F0FDFFC01B0228F7D935E7052A44
:1035D0001A6F03D142F004021A67CDE722F001020C
:1035E0001A671A6F22F00402C9E701F0E9FFC01B55
:1035F0004045CED921E701F0E3FF1E4D074641F2D9
:1036000088382B6F9807C7D501F0DAFFC01B4045FB
:10361000F7D912E7174DAB6803F00C03082B46D01F
:10362000184E00230228336034D101F0C9FF074649
:103630002B68990128D4D4E907321343626A43EA1C
:103640008213E26A43EA0263A26A0A4C5208013A10
:1036500043EA02436B600123336001F0B1FF05468A
:1036600023689A013FF5BAAE01F0AAFF401B022879
:10367000F6D9E2E60038024000004742800E474299
:10368000007000406000474201F09AFFC01B022812
:10369000CED9D2E601F094FF04462B689B017FF55A
:1036A0009DAE01F08DFF001B0228F6D9C5E601286A
:1036B0003FF4C4AE6B68E26903F4800191427FF489
:1036C00079AE216A03F03F028A427FF473AE616AE9
:1036D00047F6C0721A40B2EB811F7FF46BAEA26A4C
:1036E000520803F44031013AB1EB024F7FF462AE6D
:1036F000E26A03F07063B3EB026F14BF0120002095
:103700009CE600BF08B513498B6803F00C03042B3B
:1037100003D0082B03D0104800E0104808BD4A68C9
:103720004B68496813F4800314BF0C480A48C1F37E
:10373000881118BF002302F03F02A1FB0001FDF732
:10374000C5F9044B5B68C3F3014301335B00B0FB75
:10375000F3F0E3E7003802400024F40000127A009E
:103760002DE9F0410D46044610B90120BDE8F08175
:10377000454B1A6802F00F028A422AD323689E073B
:103780002FD42368D90743D43F4B1A6802F00F02A5
:10379000AA4268D823685A076ED423681B0707D546
:1037A0003A4A2169936823F4604343EAC103936072
:1037B000FFF7A8FF354B364A9B68C3F30313D35C6E
:1037C000D840344B1860344B1868FEF7F9FF0020DE
:1037D000CCE7CAB21A701B6803F00F038B42C4D146
:1037E000CCE7580741BF294A936843F4E0539360FC
:1037F0002368264A13F0080F1EBF936843F4604302
:1038000093609368A16823F0F0030B439360B8E7DB
:1038100062681E4B012A1CD11B6813F4003FA4D020
:103820001A4EB36823F003031343B36001F0C8FEDC
:1038300041F288380746B368626803F00C03B3EBC3
:10384000820FA1D001F0BCFEC01B4045F3D903207C
:103850008CE7911E01291B6802D813F0007FDEE778
:1038600013F0020FDBE7EAB21A701B6803F00F03D4
:10387000AB427FF47AAF8DE7044AE168936823F4A2
:10388000E0530B43936088E7003C0240003802405D
:10389000541E02080C0000201C000020044B054AA6
:1038A0009B68C3F38223D35C034A1068D8407047F7
:1038B00000380240641E02080C0000200F23036041
:1038C0000B4B9A6802F0030242609A6802F0F00221
:1038D00082609A6802F4E052C2609B68DB0803F4DD
:1038E000E0530361034B1B6803F00F030B60704749
:1038F00000380240003C02407047000090F83D3024
:10390000012B31D10268022380F83D30D36843F0A7
:103910000103D3600368154A93421AD0B3F1804F74
:1039200017D0A2F57C42934213D002F580629342F5
:103930000FD002F5806293420BD002F57842934299
:1039400007D002F57052934203D0A2F5943293420D
:1039500004D19A6802F00702062A03D01A6842F0DE
:1039600001021A60002070470120704700000140EA
:10397000704770477047704770B50368DD681E690F
:10398000B10704460ED5AA070CD56FF002021A61E2
:103990000123037703689B699B076CD0FFF7E9FF5E
:1039A00000232377710711D56A070FD523686FF0BD
:1039B00004021A610223237723689B6913F4407F72
:1039C00020465ED0FFF7D5FF00232377330710D5BD
:1039D00028070ED523686FF008021A6104232377A5
:1039E0002368DB699907204651D0FFF7C2FF002307
:1039F0002377F20611D5EB060FD523686FF010027E
:103A00001A61082323772368DB6913F4407F20467B
:103A100043D0FFF7AEFF00232377F00708D5E9076F
:103A200006D523686FF001021A612046FFF70CFAF1
:103A3000320608D52B0606D523686FF080021A617E
:103A4000204600F059FD700608D5690606D52368A2
:103A50006FF040021A612046FFF78DFFB20622D5B3
:103A6000AB0620D523686FF020021A612046BDE81E
:103A7000704000F040BDFFF77BFF2046FFF77AFF64
:103A80008EE7FFF775FF2046FFF774FF9CE7FFF70F
:103A90006FFF2046FFF76EFFA9E7FFF769FF20469B
:103AA000FFF768FFB7E770BD334A0368904212D052
:103AB000B0F1804F0FD0A2F57C4290420BD002F5BE
:103AC0008062904207D002F58062904203D002F5F6
:103AD0007842904219D14A6823F070031343264A72
:103AE000904229D0B0F1804F26D0A2F57C4290427E
:103AF00022D002F5806290421ED002F58062904290
:103B00001AD002F57842904216D01C4A904213D047
:103B100002F5806290420FD002F5806290420BD095
:103B2000A2F59832904207D002F58062904203D00D
:103B300002F58062904203D1CA6823F440731343B4
:103B40004A6923F08003134303608B68C3620B68E8
:103B50008362094B984203D003F58063984201D1F8
:103B60000B690363012343610369DB0742BF0369F8
:103B700023F0010303617047000001400040014051
:103B800010B5044630B390F83D3003F0FF021BB986
:103B900080F83C20FFF7B0FE022384F83D30206817
:103BA000211DFFF781FF012384F84630002084F8AF
:103BB0003E3084F83F3084F8403084F8413084F857
:103BC000423084F8433084F8443084F8453084F837
:103BD0003D3010BD0120FCE701684B6913F48063A0
:103BE0004FF0000210D06FF480634B61202302631A
:103BF00080F83D3080F83E20036C80F83C2043F094
:103C00000403036401207047184670472DE9F84308
:103C1000089E044690461F464FEA11498DB220681F
:103C2000B9F1010F0CBF4369836935EA03030CBF87
:103C300001210021884501D0002023E07B1CEFD02A
:103C400001F0BEFC801BB84201D8002FE7D12168EB
:103C5000B9F1010F0CBF4B698B6935EA03030CBF47
:103C6000012100218845DAD100232022236384F832
:103C70003D2084F83E30226C84F83C3042F0200233
:103C800022640120BDE8F8832DE9F041044617467F
:103C900098468EB22568686936EA000018D06B69CC
:103CA0005A0517D52B6843F400732B6023686FF413
:103CB00080625A6100232022236384F83D2084F827
:103CC0003E30226C42F00402226484F83C30012031
:103CD000BDE8F0817B1CDED001F072FCA0EB080097
:103CE000B84201D8002FD5D123685B6936EA0303B7
:103CF000D0D000232022236384F83D2084F83E3076
:103D0000226C42F02002DFE770B504460D461646ED
:103D100023685B695B0701D5002070BD2046FFF773
:103D20005BFFC8B96A1CF3D001F04AFC801BA842B3
:103D300001D8002DECD123685B6913F00403E7D1AF
:103D40002022236384F83D2084F83E30226C84F8DE
:103D50003C3042F0200222640120DEE770B50446C8
:103D60000D4616462068436913F0400301D0002039
:103D700010E04269D2060ED56FF010024261202297
:103D8000236384F83D2084F83E30226C226484F85A
:103D90003C30012070BD01F013FC801BA84201D80B
:103DA000002DDFD123685B6913F04003DAD12022B4
:103DB000236384F83D2084F83E30226C42F02002D8
:103DC000E4E770B504460D46164623685B691B069A
:103DD00001D5002070BD2046FFF7FEFEC8B96A1C61
:103DE000F3D001F0EDFB801BA84201D8002DECD1EF
:103DF00023685B6913F08003E7D12022236384F8F2
:103E00003D2084F83E30226C84F83C3042F02002A1
:103E100022640120DEE700002DE9FF41154602681B
:103E20000B9E9846136843F4807313600F460A9BF9
:103E3000009600224FF001110446FFF7E7FE2368C9
:103E400038B11B68DB0502D54FF4007323640320EF
:103E50000AE007F0FE071F610A9A19493346204617
:103E6000FFF712FF18B1012004B0BDE8F08123680C
:103E700003905A6903929B69039332460A99039B04
:103E80002046FFF79EFF40B1236C042B01BF226840
:103E9000136843F400731360E5E7B8F1010F23687A
:103EA00002D1EDB21D61DFE72A0A1A610A99324692
:103EB0002046FFF786FF0028E6D12368F1E700BF20
:103EC000020001002DE9FF41164602680B9D98464D
:103ED000136843F4806313600268136843F48073CB
:103EE00013600F460A9B009500224FF00111044613
:103EF000FFF78CFE236848B11B68DB0502D54FF441
:103F000000732364032004B0BDE8F081FFB207F022
:103F1000FE021A6129490A9A2B462046FFF7B4FE91
:103F200008B10120EFE7236803905A6903929B6967
:103F300003932A460A99039B2046FFF742FF40B1AC
:103F4000236C042B01BF2268136843F400731360D1
:103F5000E7E7B8F1010F236825D1F6B21E612A46C2
:103F60000A992046FFF72DFF02460028E8D1216874
:103F70000B6843F480730B6020460A9B00954FF05A
:103F80000111FFF743FE23680028B5D147F0010770
:103F90001F610A9A09492B462046FFF775FE00303B
:103FA00018BF0120AFE7320A1A610A992A46204653
:103FB000FFF707FF0028C3D12368CEE70200010006
:103FC00070B5044608B9012070BD90F83D3003F08B
:103FD000FF021BB980F83C20FEF7B4FF22682423BF
:103FE00084F83D30136823F00103136022681368DE
:103FF00043F4004313602268136823F40043136002
:10400000FFF74CFC424B62689A4294BF414B424BD3
:1040100098428CBF00230123002BD4D122683F4952
:104020005368B0FBF1F123F03F030B435360666824
:10403000374B25689E4288BF4FF496732A6A8ABF21
:104040004B434B1C4FF47A7122F03F0284BFB3FB09
:10405000F1F3013313432B6221686368CA692C4D65
:1040600022F44F42AB4222F0FF0200F1FF3035D87C
:104070005B00B0FBF3F0431CC3F30B03042B38BF0E
:1040800004231343CB612168D4E907300A68034352
:1040900022F0C00213430B602168D4E903038A684D
:1040A00022F40342034322F0FF0213438B60216892
:1040B000D4E90530CA68034322F0FF021343CB6002
:1040C0002268136843F0010313600020202320645A
:1040D00084F83D30206384F83E0075E7A56855B943
:1040E00003EB4303B0FBF3F0431CC3F30B036BB1CF
:1040F00043F40043C5E719256B43B0FBF3F0431CC1
:10410000C3F30B0313B143F44043BAE70123B8E709
:10411000A08601007F841E00FF083D0040420F0082
:104120002DE9F743044699460F4690460C9E01F050
:1041300047FA94F83D30202B054603D0022003B007
:10414000BDE8F0830090192301223D492046FFF786
:104150005DFD0028F2D194F83C30012BEED0012314
:1041600084F83C3023681A68D2075EBF1A6842F0B0
:1041700001021A602268136823F40063136021238C
:1041800084F83D30402384F83E30002323640A9BAA
:104190006362BDF82C306385638D2385294BE36210
:1041A000CDE900654B46424639462046FFF734FECE
:1041B00000282DD00120C2E7FFF703FE40B1236C99
:1041C000042B01BF2268136843F400731360F1E706
:1041D000626A236812781A61616A628D4B1C63629D
:1041E000238D013A92B2013B62859BB222682385FE
:1041F000506940070CD55BB14B781361636A01339A
:104200006362238D013B2385638D013B9BB26385F4
:10421000238D2A4631462046002BCDD1FFF774FD71
:104220000028CCD12268136843F400731360202364
:1042300084F83D3084F83C0084F83E007FE700BFFE
:10424000020010000000FFFF2DE9F043044687B094
:1042500099460D469046109F01F0B2F994F83D3012
:10426000202B064604D00225284607B0BDE8F0837F
:104270000090192301227B492046FFF7C7FC002844
:10428000F1D194F83C30012BEDD0012384F83C307F
:1042900023681A68D0075EBF1A6842F001021A60EC
:1042A0002268136823F400631360222384F83D30EE
:1042B000402384F83E30002323640E9B6362BDF8E4
:1042C0003C306385638D2385674BE3622946CDE9E6
:1042D00000764B4642462046FFF7F4FD054608B1FE
:1042E0000125C1E7228D2368B2B902905A69029272
:1042F0009A690292029A1A6842F400721A60DFF810
:104300006C81238D002B2FD1202284F83D2084F84E
:104310003C3084F83E30A7E7012A0BD11A6822F41A
:1043200080621A60236803905A6903929A69039223
:10433000039AE0E7022A10D11A6822F480621A6018
:104340002268136843F400631360236804905A6979
:1043500004929B690493049BD1E705905A690592E6
:104360009B690593059BCAE7032B58D8012B0BD1FA
:10437000324639462046FFF7F1FC0028B0D12368C9
:104380001A69636A1A7021E0022B00963B464FF0CF
:1043900000024146204624D1FFF738FC00289FD177
:1043A0002268136843F40073136023681A69636A10
:1043B0001A70626A531C6362238D013B2385638DEF
:1043C000013B9BB2638523681B695370636A0133A9
:1043D0006362238D013B2385638D013B9BB2638523
:1043E0008FE7FFF713FC024600287FF479AF2168BE
:1043F0000B6823F480630B6023681969636A197082
:10440000636A009601336362238D013B2385638DCC
:10441000013B9BB2638541463B462046BCE73246A2
:1044200039462046FFF79AFC00287FF459AF2368ED
:104430001A69636A1A70636A628D01336362238D3D
:10444000013A92B2013B62859BB222682385516991
:1044500049077FF556AF032B02BF136823F480632F
:1044600013608CE7020010000000FFFF0400010051
:1044700010B590F83D30DBB2202B19D1046824220E
:1044800080F83D20226822F0010222600468626AFE
:1044900022F0100262620468626A1143616201687C
:1044A0000A6842F001020A6080F83D30002010BD29
:1044B0000220FCE730B590F83D20D2B2202A18D176
:1044C0000568242380F83D302C6824F001042C601A
:1044D0000468656A4FF6F0732B400B439BB263622E
:1044E00001680B6843F001030B6080F83D20002059
:1044F00030BD0220FCE7704770470000074AD368D0
:1045000023F4E0631B041B0C43F0BF63000243F47D
:10451000003300F4E0600343D360704700ED00E037
:1045200070B5174BDC68C4F30224C4F10705042DF1
:1045300004F1040328BF04254FF0FF36062B06FACA
:1045400005F38CBF033C002421EA0303A34006FAD1
:1045500004F422EA0404002843EA0403A8BF00F19B
:1045600060404FEA0313BCBF00F00F00054ADBB206
:10457000AABF00F56140135480F8003370BD00BF3E
:1045800000ED00E014ED00E0002808DB0123420903
:1045900000F01F0003FA00F0014B43F822007047BF
:1045A00000E100E030B5D1E907340A684D6A2343E1
:1045B000154C92B902682B43224013434A681343B7
:1045C0008A681343CA6813430A6913434A69134349
:1045D0008A6913430360002030BD02682B4322F434
:1045E000F8421343036043684A68234013438A68D0
:1045F0001343CA6813430A6913434A6913438A6918
:1046000013434360E7E700BF0080FFFF30B5CB688E
:104610004D695C1E6B1E1B0543EA0434CAB90B6866
:104620008268013B02F07042234313434A68013A17
:1046300043EA02138A68013A43EA02230A69013A0B
:1046400043EA02438A69013A43EA02638360002035
:1046500030BD836823F4700323F4704323438360E5
:10466000C3684A6803F07043013A43EA02130A68D8
:10467000013A13438A68013A43EA02230A69013A7C
:1046800043EA02438A69013A43EA0263C360DEE710
:1046900070B51546D1E90032044613430069CA6873
:1046A000800D43EA42238A6880050343013A43EAC6
:1046B0004213236100F084FF0646A06910F0200039
:1046C00003D06B1CF9D00DB9032070BD00F078FF4A
:1046D000801BA842F1D9F7E7436923F47F5323F005
:1046E0003E0343EA41014161002070472DE9F74F45
:1046F000DFF8C8C16F4CDFF8C881DFF8C8E10023DC
:1047000001250A689D402A40954240F0B9804E68D4
:1047100006F003065F000325013EBD40012E6FEA4F
:10472000050511D8866806EA0509CE68BE4046EA46
:1047300009068660466826EA02094E68C6F3001636
:104740009E4046EA090646604E6806F00306032EC0
:1047500007D0C66806EA05098E68BE4046EA090623
:10476000C6604E6806F00306022E16D14FEAD30A41
:1047700000EB8A0A03F0070BDAF820604FEA8B0B94
:104780004FF00F0909FA0BF926EA09090E6906FA32
:104790000BF646EA0906CAF82060066835404E68FE
:1047A00006F00306BE40354305604D6815F4403FF2
:1047B00066D04FF0000BCDF804B0DCF844603E4DFD
:1047C00046F48046CCF84460DCF8446006F4804649
:1047D0000196019E23F0030606F1804606F59C36FD
:1047E00003F00309D6F808A04FEA89090F2707FA52
:1047F00009F7A8422AEA070749D005F58065A842CB
:1048000047D005F58065A84245D005F58065A842EA
:1048100043D0404543D0704543D005F54065A8429C
:1048200041D005F58065A8423FD005F58065A842D6
:104830003DD005F58065A84214BF0A25092505FA73
:1048400009F53D43B5604D68A768D643ED0254BFF6
:1048500037401743A7604D68E768AD0254BF374043
:104860001743E7604D686768AD0354BF374017438F
:1048700067604D682768ED0354BF374017432760D2
:104880000133102B7FF43CAF03B0BDE8F08F5D46E1
:10489000D5E70125D3E70225D1E70325CFE7042596
:1048A000CDE70525CBE70625C9E70725C7E7082596
:1048B000C5E700BF003C0140000002400038024054
:1048C00000100240001402400369194214BF012085
:1048D000002070470AB1816170470904FBE7436912
:1048E00001EA030221EA030141EA024181617047C2
:1048F0002DE9F7431E4688461746044600F060FE41
:104900000A9D35442D1A00F05BFE274B1B68C3F34C
:10491000CB3381466B4322680193936838EA0303E3
:104920000CBF01230023BB4201D1002031E0731CE6
:10493000F3D000F045FEA0EB0900A8422CD322687A
:10494000536823F0E00353606368B3F5827F0BD1B3
:10495000A368B3F5004F02D0B3F5806F04D122688D
:10496000136823F040031360A36AB3F5005F09D115
:104970002268136823F4005313602268136843F419
:1049800000531360012384F85130002384F8503021
:10499000032003B0BDE8F083019B002B019B08BFFF
:1049A0000025013BB7E700BF0C000020F0B585B043
:1049B0000B4600920E461746022101220446FFF7DD
:1049C00097FF054628B1636D43F020036365032517
:1049D00015E0124B124A1B68B3FBF2F24FF47A73E4
:1049E000534303936368B3F5827F0BD1024600976C
:1049F000334680212046FFF77BFF0028E3D128467D
:104A000005B0F0BD039B002BF9D0039B013B039342
:104A100023689B681B06F5D4F1E700BF0C0000205B
:104A200000366E0113B50B464168B1F5827F04462E
:104A30000BD18168B1F5004F02D0B1F5806F04D180
:104A40002068016821F0400101606168B1F5827F52
:104A50000ED1A1680092B1F5806F4FF0000209D02D
:104A600080212046FFF744FF30B9002002B010BD7E
:104A7000009200220121F4E7636D43F02003636597
:104A80000320F3E710B50446002858D0436A002BF2
:104A900051D14268B2F5827F00D0C3610023A36286
:104AA00094F8513003F0FF0223B984F850202046D7
:104AB000FEF780FB2268022384F85130136823F04C
:104AC00040031360D4E90023A16803F4827301F466
:104AD00004410B43E16801F400610B43216901F0DB
:104AE00002010B43616901F001010B43A16901F46B
:104AF00000710B43E16901F038010B43216A01F0B9
:104B000080010B43A16A01F400510B431360638BD6
:104B1000626A216802F0100203F0040313434B6041
:104B20002268D36923F40063D36100200123606508
:104B300084F8513010BD0023C0E90433AEE70120F2
:104B4000F8E72DE9F3411D4690F85030012B04465B
:104B50008846164600F09B80012380F8503000F014
:104B60002FFD94F85130012B074640F08E80B8F1AC
:104B7000000F06D10120002384F8503002B0BDE8B8
:104B8000F081002EF6D0032384F85130A368C4F8D6
:104B900030800020B3F5004F6065A686E686A063EE
:104BA000A087E087C4E9100009D12268136823F0C8
:104BB000400313602268136843F480431360236842
:104BC0001A6852065EBF1A6842F040021A60E26834
:104BD0006368B2F5006F37D10BB1012E0AD123689B
:104BE000226B1288DA60236B02332363E38E013B6E
:104BF0009BB2E386E38E9BB2B3B93A462946204680
:104C0000FFF7D4FE00283DD1A36833B90193236890
:104C1000DA6801929B680193019B606D0028A9D11D
:104C2000012384F85130A6E723689A689007D7D407
:104C300000F0C6FCC01BA842DCD3691CDAD00123FB
:104C400084F85130032096E70BB1012E0AD1236876
:104C5000226B12781A73236B01332363E38E013BBB
:104C60009BB2E386E38E9BB2002BC6D023689A6882
:104C70009207EDD400F0A4FCC01BA842F2D36B1C39
:104C8000F0D0DCE720236365BEE7022073E7022053
:104C900074E72DE9F7431D4690F850300A9E012B2A
:104CA00004468846914600F0EC80012380F850309D
:104CB00000F086FC94F85130DBB2012B07460BD094
:104CC0006268B2F5827F40F0DA80A268002A40F084
:104CD000D680042B40F0D380B8F1000F01D1012021
:104CE00081E0B9F1000FFAD0002DF8D094F85130DE
:104CF000C4F83890042B1CBF052384F851300023DE
:104D0000C4E9103363652368E587A587C4F830805C
:104D1000E586A5861A6852065EBF1A6842F0400210
:104D20001A60E2686368B2F5006F62D10BB1012DC1
:104D30000AD1226B23681288DA60236B0233236363
:104D4000E38E013B9BB2E3860125E38E9BB2D3B990
:104D5000E38F9BB2BBB93A4631462046FFF726FEA9
:104D6000002840F08980A36833B923680190DA688D
:104D700001929B680193019B636D002BAFD10123CE
:104D800084F851302FE02268936898070ED5E38E9F
:104D90009BB25BB155B1236B1B88D360236B02338D
:104DA0002363E38E013B9BB2E38600252268936870
:104DB000D9070DD5E38F9BB253B1A36BD2681A808C
:104DC000A36B0233A363E38F013B9BB2E38701250F
:104DD00000F0F6FBC01B8642B7D8731CB5D0012388
:104DE00084F851300320002384F8503003B0BDE82C
:104DF000F0830BB1012D0AD1226B236812781A734C
:104E0000236B01332363E38E013B9BB2E3860125D1
:104E1000E38E9BB21BB9E38F9BB2002B9BD0226821
:104E2000936898070ED5E38E9BB25BB155B1236BA7
:104E30001B781373236B01332363E38E013B9BB217
:104E4000E386002522689368D9070DD5E38F9BB2CE
:104E500053B1A36BD2681A70A36B0133A363E38FC2
:104E6000013B9BB2E387012500F0AAFBC01B8642F1
:104E7000CED8731CCCD0B2E7202363652FE7022085
:104E8000B1E70220B2E72DE9F3411D4690F8513019
:104E9000012B04468846164640F093804368B3F5DC
:104EA000827F0CD1836853B9042380F851301346B4
:104EB00000950A46FFF7EDFE02B0BDE8F08194F8D8
:104EC0005030012B7FD0012384F8503000F078FB64
:104ED0000746B8F1000F04D10120002384F85030B8
:104EE000EAE7002EF8D0042384F8513000236365EC
:104EF0002363E687A386E386C4E91033A368C4F876
:104F00003880B3F5004FA68709D12268136823F0D3
:104F1000400313602268136823F4804313602368FE
:104F20001A6856065EBF1A6842F040021A60E368CB
:104F3000FBB1E38F9BB203B323689A68D20735D5E0
:104F4000DA68A36B1A80A36B0233A363E38F013B80
:104F50009BB2E387EDE723689A68D0071AD5A26B66
:104F60001B7B1370A36B0133A363E38F013B9BB2E5
:104F7000E387E38F9BB2002BEDD13A4629462046CA
:104F8000FFF750FDD0B9606D0028A5D1012384F84A
:104F90005130A2E700F014FBC01BA842E9D3691C02
:104FA000E7D0012384F85130032096E700F008FB96
:104FB000C01BA842BDD36B1CBBD0F2E720236365A6
:104FC000E1E7022089E7022076E710B5044640B306
:104FD00090F8393003F0FF021BB980F83820FDF754
:104FE0008FFF22686168022384F83930136823F444
:104FF00040330B4313602268A168536B23F007030F
:105000000B4353632268E168136C23F47F5323F04E
:105010003F030B43136400200123E06384F839301D
:1050200010BD0120FCE77047704770B503685E68EB
:105030001D68F207044615D5E90513D51A6822F450
:1050400080721A60C36B43F00103C36303680122DB
:105050009A60042380F83930002380F8383043699F
:1050600003B19847B20617D5AB0415D5226813686B
:1050700023F400531360236820229A60E36B43F00B
:105080000203E363042384F83930002384F83830C2
:1050900063690BB120469847300717D5290515D508
:1050A0002268136823F400631360236808229A605F
:1050B000E36B43F00403E363042384F839300023F3
:1050C00084F8383063690BB12046984772070CD5D5
:1050D0006B050AD52268136823F480631360236884
:1050E00004229A602046FFF79EFFB00715D5A90558
:1050F00013D52268136823F4007313602368022217
:105100009A60E36BE363012384F83930002384F869
:10511000383023690BB120469847F20614D5EB04CA
:1051200012D52268136823F4805313602368102279
:105130009A60E36BE363012384F83930002384F839
:1051400038302046FFF770FF70BD000070B590F852
:105150003830012B4FF002032CD0012280F8382088
:105160000A0180F839308418D4E9075345EA03432B
:10517000093D012D656A194E9ABF05F07F452B4305
:1051800043EA05630568B9B9696A31400B436B624C
:10519000036882699A61C369093B012B04D8436A99
:1051A000026823F07F439362012380F839300023A3
:1051B00080F83830184670BDE96931400B43EB6127
:1051C000831801689A690A61DB69093B012B9FBF5B
:1051D000636A026823F07F431362E5E7F0FFFC0097
:1051E000F0B505684C68EB68D20184321544C3F30E
:1051F0000B431C446B6803F470436B6005680E68D6
:10520000EB680136C3F30B431544334443EA0443CC
:105210006B600568CC68EB68C3F30A031C44AB18E9
:105220009D6805F470459D6005688B68EE680133E4
:10523000C6F30A061544334443EA0443AB600368EB
:10524000134400251C6924F007041C6103680C69E1
:1052500013441C61046891F8326091F83170D1F800
:1052600018C01444A369A561046891F8303043EA7A
:105270000C63144443EA072343EA0643A36103682B
:1052800013445C6924F0FF045C6103684C691344B7
:105290005C6104681444E36923F4E06323F00703CA
:1052A000E3610368D1E9074613443443DC610368D2
:1052B00013449C6A9D6203684C6A13449C620B69A8
:1052C00063B3012B2CD09C1E022C2BD9072B14BFAF
:1052D0000124022403681344DD6A05F0E025DD6241
:1052E00003689D18D1E900639B1B8E6A63430333F7
:1052F000744343EA0443EB6204681444236B23F4CD
:10530000FF6323F0070323630368C96A1344196327
:1053100001688B5843F001038B50F0BD0424D9E79A
:105320000324D7E70224D5E738B50446002870D017
:1053300090F8A13003F0FF021BB980F8A020FDF720
:105340005DFE2268022384F8A130936923F0704344
:105350009361D4E901300343E06822680343206984
:10536000916903430B43936121682B4A8B68134077
:105370008B60216860698B6843EA0043A06903433E
:105380008B602168CB681340CB602168E069CB68F3
:1053900043EA0043206A0343CB6021680B69134052
:1053A0000B6121680B69606A43EA0043A06A03430A
:1053B0000B6121684B691A404A612268E16A5369AE
:1053C00043EA0143216B0B435361216894F8360093
:1053D000CA6A94F8355002F07F42CA62226894F893
:1053E0003430D16A0B4343EA052343EA0043D362D6
:1053F0002268536B43F0060353632268936943F0BA
:105400000103936100200123C4F8A40084F8A130B3
:1054100038BD0120FCE700BF00F800F0704770477E
:1054200070B503689E6B5D6B7207044615D56907FE
:1054300013D55A6B22F004025A6303680422DA631C
:10544000D0F8A43043F00103C0F8A430002380F862
:10545000A12080F8A030FFF7E1FFB20717D5AB0716
:1054600015D52268536B23F002035363236802228D
:10547000DA63D4F8A4301343C4F8A430042384F8C6
:10548000A130002384F8A0302046FFF7C7FFF007C3
:1054900011D5E9070FD52268536B23F0010353633D
:1054A00022680123D36384F8A130002384F8A0305C
:1054B0002046FCF7C7FB320712D52B0710D5226810
:1054C000536B23F00803536323680822DA63012334
:1054D00084F8A130002384F8A0302046FFF79FFF16
:1054E00070BDF8B590F8A030012B06468C46964664
:1054F0004FF002001DD0012786F8A07086F8A100A9
:1055000034240D4604FB02640FCD38340FC40FCD94
:105510000FC40FCD0FC42B6823603046724661461E
:10552000FFF75EFE336800205F6286F8A17086F8A0
:10553000A000F8BD10B590F8A030012B4FF0020389
:1055400014D0046880F8A130012280F8A020636B99
:1055500023F001036363064B196401684B6B13432B
:105560004B63002380F8A12080F8A030184610BDBE
:105570000068014008B50B4B1A6842F400721A60CB
:105580001A6842F480621A601A6842F480721A60E3
:105590000320FEF7B3FF0020FDF712F9FDF778FCBA
:1055A000002008BD003C0240034A044B11681B78F0
:1055B0000B441360704700BFEC2C01201800002042
:1055C000014B1868704700BFEC2C012038B5044629
:1055D000FFF7F6FF631C1CBF054B1B78054618BF81
:1055E000E418FFF7EDFF401BA042FAD338BD00BF1F
:1055F00018000020F7B5036813F0430F044640F08D
:105600008C80236813F00C0F45D08B4D8B4E0023FC
:105610002B60FFF7D5FF074633689B0000F1D08071
:1056200023685F0715D5D4E90413D6F888201B0634
:1056300002F0E04243EA81131343C6F88830D6F8FB
:105640008C30226A23F4F853013A43EA0223C6F865
:105650008C3023681E0714D5784AA369D2F88810C5
:1056600020691B0701F0706143EA80130B43C2F805
:105670008830D2F88C30616A23F440330B43C2F88F
:105680008C3001232B60FFF79BFF6C4D06462B6887
:10569000980040F19C8023689A0634D5002301933A
:1056A000664B674D1A6C42F080521A641B6C03F013
:1056B00080530193019B2B6843F480732B60FFF7A9
:1056C0007FFF06462B68D90540F188805B4D2B6F24
:1056D00013F4407340F08980A26A02F44073B3F57A
:1056E000407F564B40F0A380996822F0704221F42D
:1056F000F81122F440720A439A60A26A196FC2F349
:105700000B020A431A67206810F010001FBF4D4BB0
:1057100094F82C201A60002050E04B4D474E002397
:105720002B60FFF74DFF074633681B0140D4236809
:10573000DF0741BFD4E901231B0743EA8213C6F800
:10574000843023689E0715D53C4AE368D2F884105C
:1057500060681B0601F0E04143EA80130B43C2F886
:105760008430D2F88C10E36921F01F01013B0B4318
:10577000C2F88C30236858060AD5E36862681B06B5
:1057800043EA8213A26843EA02732C4AC2F88430C7
:1057900001232B60FFF714FF284D06462B681901E3
:1057A0003FF52FAFFFF70CFF801B0228F6D904E06E
:1057B000FFF706FFC01B0228B6D9032003B0F0BDD7
:1057C000FFF7FEFEC01B02287FF626AFF5E7FFF7C6
:1057D000F7FE801B02287FF65AAFEEE7FFF7F0FED8
:1057E000801B02287FF66EAFE7E7A26A02F44072E0
:1057F00093423FF471AF2B6F144A0121116023F4DF
:105800004073002111602B672B6FDA077FF564AFBF
:10581000FFF7D6FE41F2883706462B6F9B073FF510
:105820005BAFFFF7CDFE801BB842F6D9C5E79A689B
:1058300022F4F81260E700BF7000474200380240CF
:1058400000700040E011474268004742400E474266
:1058500010B5044650B1437903F0FF0213B9027149
:10586000FDF736FB01236371002010BD0120FCE72A
:10587000704708B5FCF75AFDBDE80840FCF7DABCF4
:10588000FCF756BD00F108034FF0FF324360C0E95A
:105890000223036100230360704700230361704704
:1058A00043684B609A688A609A68516099600861A1
:1058B00003680133036070470A68531C30B50AD18E
:1058C00003695A684A6091608B6059600861036897
:1058D0000133036030BD00F108035C682568954220
:1058E000EFD82346F9E7D0E9012103699160D0E9B7
:1058F000011251605A68824204BF82685A600022D5
:1059000002611A68013A1A601868704710B50446B7
:1059100001F068FFA46B01F087FFB4FA84F040093E
:1059200010BD70B51546026C866B044642B9056819
:105930009DB9806801F080F9A5600136A66370BD4D
:105940006DB940681AF0BEFB6368226C1344A2680C
:105950006360934201D3236863600020EDE7C06871
:105960001AF0B0FB236CE26821685B421A448A4259
:10597000E2603EBFA2689B18E360022DEDD10EB13C
:10598000013EEAE73046D8E7034610B41A6C0846F1
:1059900062B1D9689C681144A142D96024BF1968DA
:1059A000D960D9685DF8044B1AF08CBB5DF8044BE4
:1059B000704770B5044601F015FF94F8455004F1A6
:1059C00024066DB2002D14DCFF2384F8453001F06D
:1059D0002BFF01F007FF94F8445004F110066DB25C
:1059E000002D12DCFF2384F84430BDE8704001F044
:1059F0001BBF636A002BE7D0304601F03FF808B1C7
:105A000001F0C4F8013D6DB2DCE72369002BE9D059
:105A1000304601F033F808B101F0B8F8013D6DB23D
:105A2000DEE7000038B50D46044640B94FF050039C
:105A300083F31188BFF36F8FBFF34F8FFEE701F041
:105A4000D1FED4E90F30226862604343D1181B1A9B
:105A50001344A160E3600021FF23A16384F8443074
:105A600084F8453095B9236963B104F1100001F061
:105A700005F838B10A4B4FF080521A60BFF34F8FD0
:105A8000BFF36F8F01F0D0FE012038BD04F110008C
:105A9000FFF7F8FE04F12400FFF7F4FEF2E700BF81
:105AA00004ED00E013B51C4640B94FF0500383F3FA
:105AB0001188BFF36F8FBFF34F8FFEE743B94FF0ED
:105AC000500383F31188BFF36F8FBFF34F8FFEE74F
:105AD0004AB191B94FF0500383F31188BFF36F8F30
